:020000022000DC
:106000000000012019620200016202000362020026
:10601000056202000762020009620200000000003F
:106020000000000000000000000000000B62020001
:106030000D620200000000000F6202001162020007
:10604000051B030013620200F120030075320300F8
:106050001362020013620200111E03008922030072
:106060001362020013620200136202001362020054
:106070001362020013620200136202001362020044
:1060800013620200F95C0300136202001362020053
:1060900013620200136202007DBE0300136202005D
:1060A0001362020013620200136202001362020014
:1060B00013620200136202000000000000000000F2
:1060C00013620200136202001362020013620200F4
:1060D000136202001362020013620200000000005B
:1060E00000000000000000000000000000000000B0
:1060F00000000000000000000000000000000000A0
:10610000000000000000000000000000000000008F
:10611000000000000000000000000000000000007F
:10612000000000000000000000000000000000006F
:10613000000000000000000000000000000000005F
:10614000000000000000000000000000000000004F
:10615000000000000000000000000000000000003F
:10616000000000000000000000000000000000002F
:10617000000000000000000000000000000000001F
:10618000000000000000000000000000000000000F
:1061900000000000000000000000000000000000FF
:1061A00000000000000000000000000000000000EF
:1061B00000000000000000000000000000000000DF
:1061C00000000000000000000000000000000000CF
:1061D00000000000000000000000000000000000BF
:1061E00000000000000000000000000000000000AF
:1061F000000000000000000000000000000000009F
:10620000FEE7FEE7FEE7FEE7FEE7FEE7FEE7FEE766
:10621000FEE7FEE700F002B8FFF7FCBF0F484FF0C3
:106220000701884385460E4880470E48016841F4BF
:1062300070010160BFF34F8FBFF36F8F00F01AB88A
:1062400009480A490A4A884207D0521A05D00378F9
:1062500001300B700131013AF9D170470000012083
:106260000D83020088ED00E0B4C703006022002027
:10627000742200203A493B480A1A02D0072291436F
:106280008D46394939480A1A06D00722914381F3CD
:106290000988022282F3148835483649364A00F0CC
:1062A00041F836483649374A00F03CF83648374915
:1062B000374A00F037F837483749384A00F032F8A3
:1062C00037483849384A00F02DF838483849394AB3
:1062D00000F028F838483949394A00F023F839489D
:1062E0003949002200F036F838483949002200F0D8
:1062F00031F838483849091A16F0F2F8374A904709
:1063000025482649884205D00268043003B49047E6
:1063100003BCF7E700208646EC4600200021304A07
:106320009047FEE7884214D0521A12D003460B431E
:1063300013430324234206D1036804300B60043165
:10634000043AF9D17047037801300B700131013AFA
:10635000F9D17047884202D002700130FAE77047E5
:106360000000012000E000200000012000000120CA
:10637000700B0400742200205C230020E463020000
:10638000E463020030C60300700B04007422002096
:1063900074220020C8C70300C8C70300C8C7030091
:1063A000C8C70300C8C70300C8C70300C8C70300A5
:1063B000C8C703006D0B0400580C04005C230020C8
:1063C0005C2300205C230020A0380020A03800209F
:1063D000A0380020A0380020A05800204162020010
:0463E000257302001F
:1063E40000B583B00190019B043318460CF072FB96
:1063F40000BF03B05DF804FB00B589B005900392BB
:106404001A460B468DF8133013468DF812300023CC
:106414000793059B181D9DF812209DF813109DF8F5
:10642400283000931346039A0CF0BEFD0790079B97
:10643400184609B05DF804FB00B587B003900192DB
:106444001A460B468DF80B3013468DF80A3000239C
:106454000593039B181D9DF80A309DF80B10019AB3
:106464000CF0CAFD0590059B184607B05DF804FBC7
:1064740000B587B06B4600221A605A609A60DA60F1
:1064840016230093192301934FF0CC730293022334
:106494008DF80C3069460023002213480BF0D2F823
:1064A4000590059B0493049B002B04D00F4A1D21E7
:1064B40004980EF04DFB0C48FFF792FF00F04AF8E9
:1064C40000F06BF800F08CF800F0ADF800F0B2F8D2
:1064D40000F00EF800F01BF81F213F2000F042F9F5
:1064E40000BF07B05DF804FBC8C70300D8C70300AA
:1064F40008B50E21202000F035F90021212000F0FC
:1065040031F90721222000F02DF900BF08BD00B5A4
:1065140083B000238DF8003000238DF80130002370
:106524008DF8023001238DF8033001238DF80430F7
:1065340001238DF8053001238DF8063001238DF8F1
:1065440007306B4619463F2000F097F800BF03B0B0
:106554005DF804FB00B583B000238DF80030002300
:106564008DF8013000238DF8023000238DF80330BC
:1065740000238DF8043001238DF8053000238DF8B5
:10658400063000238DF807306B4619463E2000F094
:1065940074F800BF03B05DF804FB00B583B00123B9
:1065A4008DF8003000238DF8013000238DF802307F
:1065B40000238DF8033000238DF8043000238DF878
:1065C400053000238DF8063000238DF807306B4624
:1065D40019463D2000F051F800BF03B05DF804FBFC
:1065E40000B583B000238DF8003000238DF801300E
:1065F40000238DF8023000238DF8033000238DF83A
:10660400043000238DF8053001238DF80630002373
:106614008DF807306B4619463A2000F02EF800BF7B
:1066240003B05DF804FB08B5FF21392000F09AF8A7
:1066340000BF08BD00B583B000238DF800300023EF
:106644008DF8013000238DF8023000238DF80330DB
:1066540000238DF8043000238DF8053000238DF8D5
:10666400063000238DF807306B461946382000F0B9
:1066740004F800BF03B05DF804FB00B585B0034621
:1066840000918DF8073000238DF80F30009B1A78A5
:106694009DF80F3013438DF80F309DF80F305B00D9
:1066A4008DF80F30009B5A789DF80F3013438DF806
:1066B4000F309DF80F305B008DF80F30009B9A78F7
:1066C4009DF80F3013438DF80F309DF80F305B00A9
:1066D4008DF80F30009BDA789DF80F3013438DF856
:1066E4000F309DF80F305B008DF80F30009B1A7946
:1066F4009DF80F3013438DF80F309DF80F305B0079
:106704008DF80F30009B5A799DF80F3013438DF8A4
:106714000F309DF80F305B008DF80F30009B9A7995
:106724009DF80F3013438DF80F309DF80F305B0048
:106734008DF80F30009BDA799DF80F3013438DF8F4
:106744000F309DF80F305B008DF80F309DF80F204F
:106754009DF807301146184600F004F800BF05B054
:106764005DF804FB00B589B003460A468DF80F3086
:1067740013468DF80E309DF80F308DF814309DF8C7
:106784000E308DF8153005AA0023009302231D2135
:106794000948FFF731FE0790079B0693069B002BE1
:1067A40006D0064A40F2C71106980EF0D1F900BF90
:1067B40000BF09B05DF804FBC8C70300D8C70300D5
:1067C40000B589B003468DF80F300DF10F02012397
:1067D400009301231D211448FFF70EFE0790079B29
:1067E4000693069B002B05D0104A40F2CF11069861
:1067F4000EF0AEF90DF1130201231D210A48FFF733
:106804001BFE0790079B0593059B002B05D0074AA9
:1068140040F2D51105980EF09BF99DF813301846F7
:1068240009B05DF804FB00BFC8C70300D8C7030064
:1068340000B587B00390029101920920FFF7C0FFD1
:1068440003468DF810300820FFF7BAFF03468DF891
:1068540011300B20FFF7B4FF03468DF812300A20E5
:10686400FFF7AEFF03468DF813300D20FFF7A8FFA6
:1068740003468DF814300C20FFF7A2FF03468DF871
:1068840015309DF811301BB21B021AB29DF810305E
:106894001BB213431AB2039B1A809DF813301BB228
:1068A4001B021AB29DF812301BB213431AB2029B98
:1068B4001A809DF815301BB21B021AB29DF81430D1
:1068C4001BB213431AB2019B1A8000BF07B05DF8D4
:1068D40004FB76DF704700BF18467ADF704700BFBD
:1068E40018467CDF704700BF18468FDF704700BF33
:1068F400184633DF704700BF1846000000B585B066
:106904000190019B002B0AD0074B43F00103039332
:10691400019B9B010293039B0298984700E000BFF0
:1069240005B05DF804FB00BFE0C9030000B583B007
:106934000190019B002B0AD04FF47A70FFF7DEFF21
:10694400019B013B0193019B002BF5D100E000BFAB
:1069540003B05DF804FB000000B583B0034600916A
:10696400ADF80630BDF80630009A194603480EF01B
:10697400EFF800BF03B05DF804FB00BFEFBEADDE6F
:1069840000B583B00190019808F0ECFA019808F082
:106994004DFB019B1B780C2B03D1002000F000FC65
:1069A40000E000BF00BF03B05DF804FB00B583B096
:1069B4000EF03CFC0190019B0093009B002B04D043
:1069C400044AAC2100980EF0C3F800BF03B05DF890
:1069D40004FB00BF70C8030000B587B09DF8003009
:1069E400012262F303038DF800309DF80030012288
:1069F40062F307138DF800306B460B221A491846D0
:106A0400FFF76FFF0590059B0493049B002B04D0B4
:106A1400164ABC2104980EF09BF801AB0822002111
:106A2400184615F0D3FD5023ADF80430A023ADF87B
:106A340006300023ADF808304FF4C873ADF80A30BF
:106A440001AB1846FFF749FF0590059B0393039B91
:106A5400002B04D0054AC62103980EF079F800BF34
:106A640007B05DF804FB00BF00C9030070C8030051
:106A740000B583B00021094806F020F80190019B7D
:106A84000093009B002B04D0054ACF2100980EF000
:106A94005FF800BF03B05DF804FB00BF5C23002077
:106AA40070C8030000B583B00190044ADC2101984A
:106AB4000EF04EF800BF03B05DF804FB70C803008D
:106AC40000B583B001900091009B1B78002B02D08D
:106AD400012B0CD017E00E4A0E4BD31ADB081B0413
:106AE40043F003030C49184613F0A6FD0BE0084AD3
:106AF400084BD31ADB081B0443F003030749184669
:106B040013F09AFD00BF00BF03B05DF804FB00BFA3
:106B1400FCC60300C4C603000CC9030034C9030047
:106B240000B587B06B4600221A605A609A60DA603A
:106B34000B4B00936B4619460A4801F061FA059025
:106B4400059B0493049B002B05D0074A4FF48771DF
:106B540004980DF0FDFF00BF07B05DF804FB00BF13
:106B6400C56A0200B027002070C8030000B585B0D4
:106B7400002301930B4B019301AB19460A4806F01D
:106B840081F80390039B0293029B002B05D0074AD4
:106B940040F21B1102980DF0DBFF00BF05B05DF859
:106BA40004FB00BFA96A02007023002070C8030020
:106BB40008B5FFF7DBFFFFF7B3FF00BF08BD000018
:106BC40000B585B00190019B1B78002B11D10B4BB4
:106BD4001B883B211846FFF77CFE0390039B02931E
:106BE400029B002B05D0064A40F2391102980DF0A1
:106BF400AFFF00BF05B05DF804FB00BF74220020A6
:106C040070C8030000B583B00190054A4FF4A27127
:106C140001980DF09DFF00BF03B05DF804FB00BFB9
:106C240070C8030000B58BB001AB1C2200211846CC
:106C340015F0CCFC002301934FF4A03302934FF4DE
:106C4400F023039303238DF810300023ADF81230A2
:106C540000238DF814300C4B06930C4B079301ABB7
:106C6400184603F0D5F90990099B0893089B002B5B
:106C740005D0074A40F25B1108980DF069FF00BF88
:106C84000BB05DF804FB00BFC56B0200096C020089
:106C940070C8030000BF704700B585B0002000F045
:106CA400D3FF0390039B0293029B002B05D0134A4E
:106CB4004FF4B97102980DF04BFF01F0C2F8039044
:106CC400039B0193019B002B05D00C4A4FF4BB712D
:106CD40001980DF03DFFFFF70CFE0390039B00931A
:106CE400009B002B05D0054A4FF4BD7100980DF0B0
:106CF4002FFF00BF05B05DF804FB00BF70C80300A0
:106D040000B585B003468DF807309DF80730002B99
:106D14001CD0032B1DD1124A124BD31ADB081B04BF
:106D240043F003031049184613F086FC022000F0D8
:106D34008BFF0390039B0293029B002B0BD00B4A07
:106D440040F28D1102980DF003FF04E0FFF7A4FF59
:106D540002E000BF00E000BF00BF05B05DF804FB27
:106D6400FCC60300C4C603005CC9030070C803006A
:106D740000B58BB00190009100230993019B1B88FF
:106D8400562B7AD0562B00F38B803B2B62D03B2BB7
:106D940000F38680212B43D0212B00F38180102B1C
:106DA4000DD0112B7CD1454A454BD31ADB081B046B
:106DB40043F003034349184613F03EFC79E03F4A8D
:106DC4003F4BD31ADB081B0443F003033E49184628
:106DD40013F032FC072000F037FF0990099B05935C
:106DE400059B002B05D0394A40F2AD1105980DF0F2
:106DF400AFFE019B9A88364B1A80354B1B88194687
:106E0400344805F061FF0990099B0493049B002B0F
:106E140048D02E4A4FF4D87104980DF099FE41E001
:106E240000238DF80C3000238DF80D30019B9B88D6
:106E340003AA11461846FFF758FD0990099B0693CB
:106E4400069B002B30D0214A4FF4DE7106980DF0DA
:106E54007FFE29E0019B9B8813211846FFF739FD2B
:106E64000990099B0893089B002B1FD0174A4FF4E5
:106E7400E27108980DF06CFE18E0019B9B881321C9
:106E84001846FFF726FD0990099B0793079B002BE3
:106E94000ED00E4A4FF4E67107980DF059FE07E044
:106EA40000BF06E000BF04E000BF02E000BF00E056
:106EB40000BF00BF0BB05DF804FB00BFFCC60300BD
:106EC400C4C6030070C9030080C9030070C803006E
:106ED400742200207023002000B587B014F0ECFE6B
:106EE4000590059B0493049B002B05D0164A40F2A1
:106EF400DF1104980DF02CFE0023019301AB194619
:106F0400012014F0EFFF0590059B0393039B002BD6
:106F140005D00D4A40F2E51103980DF019FE01ABBE
:106F2400184615F0D3F80590059B0293029B002B9D
:106F340005D0054A40F2E91102980DF009FE00BFA0
:106F440007B05DF804FB00BF70C8030000B587B04C
:106F540007F0F4FB0590059B0493049B002B05D0DC
:106F6400384A4FF4FC7104980DF0F2FD6B4605228B
:106F74000021184615F02AFB9DF8003043F0010368
:106F84008DF800309DF8003023F002038DF80030B6
:106F94009DF8003023F004038DF800309DF8003094
:106FA40023F008038DF800309DF80030032262F3CB
:106FB40006138DF800309DF8003023F080038DF81F
:106FC400003007238DF8013010238DF802309DF82E
:106FD400033043F001038DF803309DF8033043F090
:106FE40002038DF803309DF8043043F001038DF85B
:106FF40004309DF8043043F002038DF804306B46EE
:10700400184607F07DFC0590059B0393039B002B1A
:1070140005D00C4A40F20B2103980DF099FD0A4863
:1070240007F046FC0590059B0293029B002B05D0BC
:10703400044A40F20E2102980DF08AFD00BF07B009
:107044005DF804FB70C803008569020000B583B0D5
:107054000E4A0F4BD31ADB081B0443F003030D49FC
:10706400184613F0E9FA07F0C1FC0190019B009364
:10707400009B002B05D0084A40F21B2100980DF01C
:1070840067FD00BF03B05DF804FB00BFFCC603004E
:10709400C4C603008CC9030070C8030000B5AFB0B8
:1070A40001ABAC220021184615F090FA02238DF8AA
:1070B400043001238DF8063006238DF807300123B0
:1070C400ADF81430124B069301238DF880304FF441
:1070D4009673239344F2506324930E4B2A9301AB8B
:1070E40019460D4802F032FC2D902D9B2C932C9BBD
:1070F400002B05D0094A40F236212C980DF028FDCA
:107104000121054802F015FC00BF2FB05DF804FB17
:1071140078220020056D02007C23002070C8030043
:1071240000B583B04FF48041002012F0A5FF019018
:10713400019B0093009B002B05D0064A4FF411716C
:1071440000980DF005FD12F02DFF00BF03B05DF8AF
:1071540004FB00BF70C8030000B583B012F0D2FB7B
:107164000190019B0093009B002B05D0044A4FF42F
:10717400147100980DF0ECFC00BF03B05DF804FB43
:1071840070C8030008B513F0E1FA034683F0010365
:10719400DBB2002B01D012F0CBFB00BF08BD000016
:1071A40000B585B003468DF807309DF80730002BF5
:1071B40002D0FFF74BFF0FE00321094802F09EFCC9
:1071C4000390039B0293029B002B05D0054A40F2D7
:1071D4006E2102980DF0BCFC00BF05B05DF804FB05
:1071E4007C23002070C8030000B583B0144B1B78C7
:1071F400DBB2144A12881946134800F0E3FF0190E9
:10720400019B002B17D0019B43F20202934212D040
:10721400019B082B0FD0019B43F2014293420AD0F9
:10722400019B0093009B002B05D0084A40F27F216C
:1072340000980DF08DFC00BF03B05DF804FB00BFA7
:10724400D427002074220020B027002070C8030037
:1072540000B583B0144B1B78DBB2144A128819466C
:10726400134800F0DAFF0190019B002B17D0019B1B
:1072740043F20202934212D0019B082B0FD0019BD0
:1072840043F2014293420AD0019B0093009B002BDE
:1072940005D0084A40F28D2100980DF059FC00BF3A
:1072A40003B05DF804FB00BFD52700207422002042
:1072B400B027002070C8030000B583B0144B1B78BE
:1072C400DBB2144A12881946134800F0D1FF01902A
:1072D400019B002B17D0019B43F20202934212D070
:1072E400019B082B0FD0019B43F2014293420AD029
:1072F400019B0093009B002B05D0084A40F29B2180
:1073040000980DF025FC00BF03B05DF804FB00BF3E
:10731400D627002074220020B027002070C8030064
:1073240000B589B000238DF81F30FFF7F9FEFFF791
:107334003DFBFFF711FFFFF7CFFDFFF74DFBFFF715
:1073440097FBFFF735FCFFF7A9FEFFF76BFCFFF790
:10735400FDFD234A234BD31ADB081B0443F003032C
:107364002149184613F068F9FFF794FC0120FFF750
:1073740017FF1E49002014F0D9FAFFF779F81C49C9
:10738400002013F065FF02AB1946002013F060FFE4
:107394001849002013F05CFF0DF1020201A90DF160
:1073A40006031846FFF744FABDF90630DAB2124B69
:1073B4001A70BDF90430DAB2104B1A70BDF90230FC
:1073C400DAB20F4B1A70FFF70FFFFFF741FFFFF719
:1073D40073FFFA20FFF7AAFAFFF7D4FEDCE700BF39
:1073E400FCC60300C4C603009CC90300B8C903005B
:1073F400C8C90300D8C90300D4270020D52700201A
:10740400D627002000B583B00190019B1B681F2B79
:1074140004D9054940F2CD10FFF79EFA4FF0A0437E
:10742400184603B05DF804FBE8C9030000B585B055
:10743400019001AB1846FFF7E5FF0390019B012281
:1074440002FA03F31946039800F069F800BF05B087
:107454005DF804FB00B585B0019001AB1846FFF759
:10746400D1FF0390019B012202FA03F3194603980A
:1074740000F05FF800BF05B05DF804FB00B585B00F
:10748400019001AB1846FFF7BDFF0390039BD3F8AF
:1074940004350293029BDA43019B012101FA03F3B1
:1074A4001A40039BC3F80825019B01229A40029BC2
:1074B4001A40039BC3F80C2500BF05B05DF804FB1C
:1074C40000B583B001900091009B002B03D101987B
:1074D400FFF7C0FF02E00198FFF7A8FF00BF03B069
:1074E4005DF804FB00B585B0019001AB1846FFF7C9
:1074F40089FF0390039800F00AF80246019B22FAE0
:1075040003F303F00103184605B05DF804FB82B0F1
:107514000190019BD3F80435184602B0704782B03D
:1075240001900091019B009AC3F8082500BF02B0A6
:10753400704782B001900091019B009AC3F80C251A
:1075440000BF02B07047000000B585B00190019BF8
:10755400032B03D911493A20FFF7FEF9104A019B86
:1075640013441B781846FFF7BDFF0346002B14BFD6
:10757400012300238DF80F309DF80F30002B14BF2A
:1075840001230023DBB283F00103DBB203F0010328
:10759400DBB2184605B05DF804FB00BF18CA03004F
:1075A40098CA030000B583B00190019B032B03D953
:1075B40007494120FFF7D0F9064A019B13441B7881
:1075C40000211846FFF77CFF00BF03B05DF804FB01
:1075D40018CA030098CA030000B583B00190019B48
:1075E400032B03D907494720FFF7B6F9064A019B45
:1075F40013441B7801211846FFF762FF00BF03B054
:107604005DF804FB18CA030098CA030000B583B0F0
:107614000023019305E00198FFF7DEFF019B01338E
:107624000193019B032BF6D900BF00BF03B05DF8A3
:1076340004FB00B583B00023019305E00198FFF734
:10764400B1FF019B01330193019B032BF6D900BFCA
:1076540000BF03B05DF804FB00B583B00190019B4B
:10766400032B03D907495F20FFF776F9064A019BEC
:1076740013441B781846FFF701FF00BF03B05DF801
:1076840004FB00BF18CA030098CA030000B583B006
:107694000190019B032B03D90549CB20FFF75CF92B
:1076A400044A019B13441B78184603B05DF804FB9D
:1076B40018CA03009CCA030000B583B00190019B63
:1076C4001B681F2B04D9054940F2CD10FFF744F97C
:1076D4004FF0A043184603B05DF804FBA0CA0300B2
:1076E40000B585B001900B468DF8033001AB184608
:1076F400FFF7E2FF0390019A039B02F5E07253F84F
:107704002230019A23F44031039B02F5E07243F8DE
:107714002210019A039B02F5E07253F822109DF89F
:1077240003301B04019A1943039B02F5E07243F8EA
:10773400221000BF05B05DF804FB000000B583B063
:107744000C4B1B78002B0FD00023019308E0019B06
:10775400022B02D00198FFF73FFF019B01330193F5
:10776400019B032BF3D901E0FFF750FF00BF03B0E7
:107774005DF804FBE02700202DE9D04F92B00346CA
:107784008DF83F300023119300231093CC4B1B78CA
:10779400002B04D0CA4A00231370FFF7CFFF9DF8D3
:1077A4003F30172B00F23F8201A252F823F000BFB2
:1077B400157802002D7802002D780200C9780200A5
:1077C40065790200E1790200757A0200957A020077
:1077D400A57A0200D17A0200EF7A02000D7B020042
:1077E4002B7B0200397B0200397B0200397B0200CB
:1077F400397B0200397B0200CD7B0200DB7B020077
:10780400EF7B0200037C02001D7C02001D7C020051
:10781400FFF794FFAB4B18460DF0B2FD1190AA4A46
:107824009DF83F301370FFE10020FFF78DFE034603
:10783400002B0DD00020FFF7CFFE9DF83F30022B28
:1078440002D14FF4E16301E04FF47A6310930BE04B
:107854000020FFF7A7FE9DF83F30022B01D1C8237B
:1078640001E04FF4C8731093974A9DF83F301370AA
:10787400944C109B0022009301924FF000024FF0B1
:107884000003DDE900673946CB03314643EA51433F
:107894003146CA0312F57A71029143F1000303934E
:1078A4004FF4FA624FF00003DDE9020114F07EFDAB
:1078B40002460B4613460022194620460DF028FDC9
:1078C4001190B1E10020FFF73FFE0346002B0DD0DD
:1078D4000020FFF781FE9DF83F30032B02D14FF4C7
:1078E400487301E04FF47A6310930BE00020FFF734
:1078F40059FE9DF83F30032B01D1C82301E04FF41A
:10790400C8731093704A9DF83F3013706D4C109BF0
:107914000022049305924FF000024FF00003DDE9CA
:1079240004673946CB03314643EA51433146CA031F
:1079340012F57A71069143F1000307934FF4FA624A
:107944004FF00003DDE9060114F030FD02460B465A
:1079540013460022194620460DF0DAFC119063E12B
:107964000020FFF7F1FD0346002B06D00020FFF7AF
:1079740033FE4FF47A63109305E00020FFF712FE04
:107984004FF4C8731093504A9DF83F3013704D4C18
:10799400109B00229A4693464FF000024FF00003DA
:1079A4004FEACB3343EA5A434FEACA3212F57A71AB
:1079B400089143F1000309934FF4FA624FF0000376
:1079C400DDE9080114F0F2FC02460B4613460022DE
:1079D400194620460DF09CFC119025E10020FFF78C
:1079E400B3FD0346002B0CD00020FFF7F5FD9DF8F6
:1079F4003F30052B01D1C82301E04FF47A63109383
:107A04000BE00020FFF7CEFD9DF83F30052B01D1A0
:107A1400C82301E04FF4C87310932B4A9DF83F30FC
:107A24001370284C109B0022984691464FF0000298
:107A34004FF000034FEAC93343EA58434FEAC832D0
:107A440012F57A710A9143F100030B934FF4FA6231
:107A54004FF00003DDE90A0114F0A8FC02460B46CE
:107A640013460022194620460DF052FC1190DBE02B
:107A74000020FFF7F1FD144A9DF83F301370114BBD
:107A8400002240F2666118460DF042FC1190CBE0F2
:107A94000020FFF787FD0C4A9DF83F301370C3E0C8
:107AA400074B01221A700120FFF7D6FD054B002277
:107AB40040F2666118460DF02BFC1190B4E000BF53
:107AC400D8270020E8270020D7270020594B01227F
:107AD4001A700120FFF7C0FD574B00224FF40051EC
:107AE40018460DF015FC11909EE0524B01221A70BD
:107AF4000120FFF7B1FD504B002240F266611846A9
:107B04000DF006FC11908FE04A4B01221A700120FF
:107B1400FFF7A2FD484B00224FF4005118460DF028
:107B2400F7FB119080E0FFF784FD444A9DF83F3055
:107B3400137079E0424B18460DF022FC11909DF829
:107B44003F30C3F111031093109B002B35D0119BD0
:107B5400002B32D1109B012B28D9394C109B9BB29E
:107B64001A46C82302FB03F3DA171E4617464FF0E2
:107B740000024FF00003FB0343EA5643F20312F5FD
:107B84007A710C9143F100030D934FF4FA624FF0B4
:107B94000003DDE90C0114F009FC02460B46134610
:107BA4000022194620460DF0B3FB11900220FFF786
:107BB400F9FC244B01221A7036E00220FFF70CFD79
:107BC400204B00221A702FE0FFF7B8FD1B4A9DF8E6
:107BD4003F30137028E0FFF7B1FD0020FFF7E2FC0F
:107BE400164A9DF83F3013701EE0FFF7A7FD0120F1
:107BF400FFF7D8FC114A9DF83F30137014E0FFF7EB
:107C04009DFD0020FFF7CEFC0120FFF7CBFC0B4AC3
:107C14009DF83F30137007E0FFF70BFD074A9DF80E
:107C24003F30137000E000BF119B184612B0BDE84E
:107C3400D08F00BFD8270020E8270020D7270020B6
:107C440008280020E027002000B585B003468DF801
:107C5400073000230393084B1B6803F00103002B38
:107C640005D09DF807301846FFF786FD0390039B67
:107C7400184605B05DF804FBDC27002084B00190B1
:107C84000B468DF8033013468DF80230002303931E
:107C9400019B032B3CD89DF80230012B0BD19DF89E
:107CA4000330012B04D1019BDBB20E33DBB200E0C5
:107CB40000238DF802309DF80330022B0FD0022BE5
:107CC40023DC002B16D0012B1FD11449019A134633
:107CD4005B0013440B449DF802201A701AE00F490C
:107CE400019A13465B0013440B4401339DF80220B0
:107CF4001A700FE00949019A13465B0013440B44C0
:107D040002339DF802201A7004E00723039301E074
:107D140007230393039B184604B0704728280020C8
:107D240000B585B001900B468DF80330019B032B01
:107D340014D89DF80330002B01D0032300E0002366
:107D44008DF80F300198FFF7A1FC02469DF80F3023
:107D540019461046FFF7C4FC002300E0062318462A
:107D640005B05DF804FB00B583B0019001210198D2
:107D7400FFF7D6FF0346184603B05DF804FB00B5D1
:107D840083B0012200210020FFF778FF0190019BBE
:107D9400002B04D0019B072B01D0019B1CE0072280
:107DA40002210120FFF76AFF0190019B002B04D000
:107DB400019B072B01D0019B0EE00422022100202D
:107DC400FFF75CFF0190019B002B04D0019B072B64
:107DD40001D0019B00E00023184603B05DF804FBCA
:107DE40000B583B0012202210020FFF747FF019074
:107DF400019B002B04D0019B072B01D0019B1CE0AD
:107E0400072202210120FFF739FF0190019B002B7B
:107E140004D0019B072B01D0019B0EE00A22002114
:107E24000020FFF72BFF0190019B002B04D0019B46
:107E3400072B01D0019B00E00023184603B05DF836
:107E440004FB00B583B00020FFF78DFF0190019B78
:107E5400002B04D0019B062B01D0019B0CE00120D8
:107E6400FFF781FF0190019B002B04D0019B062B9F
:107E740001D0019B00E00023184603B05DF804FB29
:107E840000B585B001900091019B1B88102B02D096
:107E9400112B18D02FE01A4B1B68002B0DD1FFF7C4
:107EA4006EFF0390039B002B07D0164B1B68002B1F
:107EB40003D0144B1B6803989847114B1B6801337C
:107EC4000F4A136017E00E4B1B68013B0C4A13600A
:107ED4000B4B1B68002B0DD1FFF782FF0390039B14
:107EE400002B07D0074B1B68002B03D0054B1B68E6
:107EF4000398984700BF00BF05B05DF804FB00BFBE
:107F04003828002034280020A8DF704700BF184616
:107F1400AEDF704700BF184662DF704700BF1846E7
:107F240000B585B001900091009B06330393039B39
:107F34001A88019B5B899A4214D1039B0C3318461F
:107F440002F031FD0346002B03D000238DF80830E6
:107F540002E001238DF80830019B1B6802AA114638
:107F640001989847039B1A88019B5B8A9A4214D113
:107F7400039B0C33184602F016FD0346002B03D076
:107F840002238DF8083002E003238DF80830019BAA
:107F94001B6802AA114601989847039B1A88019B03
:107FA4005B8B9A4214D1039B0C33184602F0FBFC02
:107FB4000346002B03D004238DF8083002E0052388
:107FC4008DF80830019B1B6802AA11460198984756
:107FD40000BF05B05DF804FB00B585B001900091C9
:107FE400009B0393019B1B88502B04D10199039898
:107FF400FFF796FF00E000BF00BF05B05DF804FB8B
:1080040010B590B001900091009B1A68019B1A6012
:10801400019B4FF6FF72DA83694B02AC0FCB84E805
:108024000F00019B03F1200202AB11461846FFF733
:1080340073FF0F900F9B002B01D00F9BBDE0019BA2
:1080440093F820308DF83A304FF48053ADF838303F
:10805400019B1A1D0EAB19460120FFF755FF0F9027
:108064000F9B002B01D00F9BA7E006AB2022002121
:10807400184614F0ABFA41F20203ADF81830019B34
:1080840093F820308DF81A300123ADF81E30012307
:10809400ADF81C3002AB08939DF8253043F0020381
:1080A4008DF825309DF8253043F010038DF82530E8
:1080B40001238DF8293001238DF82B30019B9888FA
:1080C400019B9A1D06AB194602F0F6FC0F900F9B1C
:1080D400002B01D00F9B70E006AB20220021184634
:1080E40014F074FA41F20303ADF81830019B93F8CD
:1080F40020308DF81A300123ADF81E300123ADF87D
:108104001C3002AB08939DF8253043F002038DF830
:1081140025309DF8253043F010038DF825300123D8
:108124008DF8293001238DF82B30019B9888019B11
:1081340003F10E0206AB194602F0BEFC0F900F9B32
:10814400002B01D00F9B38E006AB202200211846FB
:1081540014F03CFA41F20403ADF81830019B93F893
:1081640020308DF81A300123ADF81E300123ADF80C
:108174001C3002AB08939DF8253043F002038DF8C0
:1081840025309DF8253043F010038DF82530012368
:108194008DF8293001238DF82B30019B9888019BA1
:1081A40003F1160206AB194602F086FC0F900F9BF2
:1081B400002B01D00F9B00E00023184610B010BD27
:1081C400D0CA030000B589B001900B468DF8033086
:1081D4001346ADF800300123ADF80E3004AB102285
:1081E4000021184614F0F2F901238DF81230019B96
:1081F400DB88ADF810300DF1030307930DF10E0386
:10820400069304AABDF8003011461846FFF780FE15
:108214000346184609B05DF804FB00B589B0019027
:108224000B468DF803301346ADF800300123ADF84A
:108234000E3004AB10220021184614F0C7F90123B4
:108244008DF81230019BDB89ADF810300DF103037A
:1082540007930DF10E03069304AABDF800301146EE
:108264001846FFF755FE0346184609B05DF804FBAF
:1082740000B589B001900B468DF803301346ADF874
:1082840000300123ADF80E3004AB10220021184653
:1082940014F09CF901238DF81230019BDB8AADF8B0
:1082A40010300DF1030307930DF10E03069304AA96
:1082B400BDF8003011461846FFF72AFE034618465B
:1082C40009B05DF804FB0000BFF34F8F00BF074BFC
:1082D400DB6803F4E0620549054B1343CB60BFF34D
:1082E4004F8F00BF00BF00BFFCE700BF00ED00E000
:1082F4000400FA05024B034A1A6000BF704700BF2E
:108304007C2200200090D00308B500F069F90346F0
:10831400002B06D0A04B1B681B0AA04A03F01F03C6
:10832400136000F089F90346002B02D09C4B9D4A50
:108334001A6000F09DF90346002B06D09A4B1B6887
:108344005B0B9A4A03F00703136000F0BDF9034680
:10835400002B05D0964BDB68954A23F08073D360DD
:1083640000F0CEF90346002B0ED04FF080430022DC
:10837400C3F80C214FF080430022C3F810214FF0C2
:1083840080430022C3F8382500F0E6F90346002BA9
:1083940002D0884B03221A6000F0FAF90346002B3E
:1083A4000BD0854B05221A60844B01221A60844B42
:1083B40000221A60834B3F221A6000F005FA03463C
:1083C400002B76D04FF080537F4AD3F80434C2F8A0
:1083D40020354FF080537C4AD3F80834C2F8243552
:1083E4004FF08053784AD3F80C34C2F828354FF054
:1083F4008053754AD3F81034C2F82C354FF08053AB
:10840400714AD3F81434C2F830354FF080536E4AB1
:10841400D3F81834C2F834354FF080536A4AD3F88D
:108424001C34C2F840354FF08053674AD3F82034E7
:10843400C2F844354FF08053634AD3F82434C2F869
:1084440048354FF08053604AD3F82834C2F84C358D
:108454004FF080535C4AD3F82C34C2F850354FF0B7
:108464008053594AD3F83034C2F854354FF080530E
:10847400554AD3F83434C2F860354FF08053524A29
:10848400D3F83834C2F864354FF080534E4AD3F8E9
:108494003C34C2F868354FF080534B4AD3F840342B
:1084A400C2F86C354FF08053474AD3F84434C2F8CD
:1084B400703500F0A5F90346002B05D0434B1B682B
:1084C400434A03F04F03136000F0C6F90346002B40
:1084D4000DD04FF08043D3F8003403F00103002B98
:1084E40005D04FF080436FF00102C3F8002400F080
:1084F400DFF90346002B05D0364B1B68354A43F49D
:1085040080631360344BD3F88830334A43F47003E8
:10851400C2F88830BFF34F8F00BFBFF36F8F00BF27
:108524004FF01023D3F80032002B05DB4FF010235B
:10853400D3F80432002B2BDA284B0122C3F804258C
:1085440000BF264BD3F80034002BFAD04FF0102391
:108554001522C3F8002200BF204BD3F80034002BAF
:10856400FAD04FF010231522C3F8042200BF1B4B8E
:10857400D3F80034002BFAD0184B0022C3F804259A
:1085840000BF164BD3F80034002BFAD0FFF79CFE43
:10859400FFF7B0FE00BF08BD2403001040350140C2
:1085A40074C007400DF0ADBA440200103C05004011
:1085B400F0ED00E0A0050040105600408856004051
:1085C400185600401456004000C0004058020010E5
:1085D400E40E00403C17004000ED00E000E00140E4
:1085E400124B1B68DBB2062B1DD1114B1B6803F029
:1085F4000F03002B17D10F4B1B6803F0F003302B34
:1086040001D1012310E00B4B1B6803F0F003402B56
:1086140001D1012308E0074B1B6803F0F003502B42
:1086240001D1012300E0002318467047E00F00F059
:10863400E40F00F0E80F00F00A4B1B68DBB2062BD6
:108644000DD1094B1B6803F00F03002B07D1074B17
:108654001B6803F0F003302B01D1012300E0002359
:1086640018467047E00F00F0E40F00F0E80F00F048
:10867400124B1B68DBB2062B1DD1114B1B6803F098
:108684000F03002B17D10F4B1B6803F0F003302BA3
:1086940001D1012310E00B4B1B6803F0F003402BC6
:1086A40001D1012308E0074B1B6803F0F003502BB2
:1086B40001D1012300E0002318467047E00F00F0C9
:1086C400E40F00F0E80F00F00A4B1B68DBB2062B46
:1086D4000DD1094B1B6803F00F03002B07D1074B87
:1086E4001B6803F0F003302B01D1012300E00023C9
:1086F40018467047E00F00F0E40F00F0E80F00F0B8
:10870400124B1B68DBB2062B1DD1114B1B6803F007
:108714000F03002B17D10F4B1B6803F0F003302B12
:1087240001D1012310E00B4B1B6803F0F003402B35
:1087340001D1012308E0074B1B6803F0F003502B21
:1087440001D1012300E0002318467047E00F00F038
:10875400E40F00F0E80F00F00A4B1B68DBB2062BB5
:108764000DD1094B1B6803F00F03002B07D1074BF6
:108774001B6803F0F003302B01D1012300E0002338
:1087840018467047E00F00F0E40F00F0E80F00F027
:108794000A4B1B68DBB2062B0DD1094B1B6803F097
:1087A4000F03002B07D1074B1B6803F0F003302B9A
:1087B40001D1012300E0002318467047E00F00F0C8
:1087C400E40F00F0E80F00F00A4B1B68DBB2062B45
:1087D4000DD1094B1B6803F00F03002B07D1074B86
:1087E4001B6803F0F003502B01D1012300E00023A8
:1087F40018467047E00F00F0E40F00F0E80F00F0B7
:10880400124B1B68DBB2062B1DD1114B1B6803F006
:108814000F03002B17D10F4B1B6803F0F003302B11
:1088240001D1012310E00B4B1B6803F0F003402B34
:1088340001D1012308E0074B1B6803F0F003502B20
:1088440001D1012300E0002318467047E00F00F037
:10885400E40F00F0E80F00F0124B1B68DBB2062BAC
:108864001DD1114B1B6803F00F03002B17D10F4BC5
:108874001B6803F0F003302B01D1012310E00B4BF4
:108884001B6803F0F003402B01D1012308E0074BE0
:108894001B6803F0F003502B01D1012300E00023F7
:1088A40018467047E00F00F0E40F00F0E80F00F006
:1088B400064B1B68062B05D1054B1B68062B01D103
:1088C400012300E000231846704700BF3001001068
:1088D400340100106DDF704700BF184679DF704720
:1088E40000BF18467DDF704700BF184664DF70473D
:1088F40000BF184682B003460091ADF80630BDF8BB
:108904000630DAB2009B1A70BDF806301B0A9AB220
:10891400009B0133D2B21A700223184602B070478A
:1089240000B589B0039002911346ADF80630029B5E
:108934001B8803F10902BDF806309A4201D90C23C1
:1089440053E004AB1846FFF7C5FF0790079B069357
:10895400069B002B01D0069B47E0029B1B881A460E
:10896400039B134408221A70029B1B8801339AB29A
:10897400029B1A80029B1B881A46039B13441B22EA
:108984001A70029B1B8801339AB2029B1A80029BC5
:108994001B881A46039B981804AB01330622194618
:1089A40013F0E2FD029B1B8806339AB2029B1A80E5
:1089B4009DF8103023F00103DBB2002B07D1029B9A
:1089C4001B881A46039B134400221A7006E0029B7C
:1089D4001B881A46039B134401221A70029B1B88AE
:1089E40001339AB2029B1A800023184609B05DF83D
:1089F40004FB00B589B0039002910192ADF80230F6
:108A0400039B1B78012B05D1039B5B78002B01D1C1
:108A1400072391E0019B1B889A1CBDF802309A42FF
:108A24000ED8039B1B78012B0CD1019B1B881A4683
:108A3400039B5B7813449A1CBDF802309A4201D917
:108A44000C2379E0019B1B88BDF80220D31A9BB24A
:108A5400023BADF81C30BDF81C30ADF81230019B60
:108A64001B880233029A13440DF112021146184670
:108A7400FFF738FF0690069B0593059B002B01D05A
:108A8400059B59E0039B1B78022B06D0039B5B7864
:108A94001A46BDF812309A4209D3BDF81230BDF817
:108AA4001C209A4203D309238DF81F3016E00823B3
:108AB4008DF81F30039B1B78012B0BD1039B5B7834
:108AC4001A46BDF81C30934204D3039B5B78ADF87F
:108AD400123003E0BDF81C30ADF81230BDF812308E
:108AE400FE2B01D90C2327E0BDF81230DAB2019B2A
:108AF4001B881946029B0B440132D2B21A70019BA7
:108B04001B8801339AB2019B1A80019B1B881A4669
:108B1400029B13449DF81F201A70019B1B8801338C
:108B24009AB2019B1A80019B1A88BDF81230134433
:108B34009AB2019B1A800023184609B05DF804FB21
:108B440000B589B0039002911346ADF80630029B3C
:108B54001B881A1DBDF806309A4201D90C233AE04D
:108B64000DF116031846FFF7B9FE0790079B06930D
:108B7400069B002B01D0069B2DE0029B1B881A4606
:108B8400039B134403221A70029B1B8801339AB27D
:108B9400029B1A80029B1B881A46039B13441922CA
:108BA4001A70029B1B8801339AB2029B1A80BDF88B
:108BB4001620029B1B881946039B0B44194610463A
:108BC400FFF798FE03461A46029B1B8813449AB289
:108BD400029B1A800023184609B05DF804FB84B098
:108BE400029101921A4603468DF80F301346ADF8F0
:108BF4000C30019B1B88DA1CBDF80C309A4201D959
:108C04000C2328E0019B1B881A46029B1344022272
:108C14001A70019B1B8801339AB2019B1A80019B35
:108C24001B881A46029B134401221A70019B1B885D
:108C340001339AB2019B1A80019B1B881A46029B3E
:108C440013449DF80F201A70019B1B8801339AB2BC
:108C5400019B1A800023184604B0704784B0029127
:108C640001921A4603468DF80F301346ADF80C30C6
:108C7400019B1B88DA1CBDF80C309A4201D90C23E5
:108C840028E0019B1B881A46029B134402221A7097
:108C9400019B1B8801339AB2019B1A80019B1B889C
:108CA4001A46029B13440A221A70019B1B88013343
:108CB4009AB2019B1A80019B1B881A46029B13449B
:108CC4009DF80F201A70019B1B8801339AB2019BF7
:108CD4001A800023184604B0704700B58FB0039083
:108CE40001930B468DF80B3013468DF80A300023A0
:108CF4008DF83330109B1B88ADF8303000230D9372
:108D040070E0039B5A680D9B9B001A4405AB1068E6
:108D140018600DF11B0105AB00221846FFF7E6FDB4
:108D24000A900A9B0993099B002B01D0099B7BE0C5
:108D34009DF81B309DF80A209A4250D19DF833309B
:108D4400002B01D0002300E002238DF82330109B78
:108D54001B881A469DF81B301A449DF823301A4488
:108D6400BDF844309A4201DD0C235DE09DF83330B8
:108D740083F00103DBB2002B16D0109B1B88013358
:108D84009AB2109B1A80109B1B881A46019B1344AD
:108D94009DF80B201A70109B1B8801339AB2109B0C
:108DA4001A8001238DF83330109B1B881A46019BCF
:108DB4001A440DF11B0105AB1846FFF797FD0A9005
:108DC4000A9B0793079B002B01D0079B2CE0109B69
:108DD4001B889DF81B2013449AB2109B1A800D9B8C
:108DE40001330D93039B1B881A460D9B934288DB2A
:108DF4009DF83330002B16D0109B1A88BDF8303004
:108E0400D31A9BB2013BADF82E30BDF82E30FF2BA8
:108E140001D90C2308E0BDF83030019A1344BDF8A1
:108E24002E20D2B21A70002318460FB05DF804FB4E
:108E340000B58BB0059003930B468DF813301346A1
:108E44008DF812309DF81310BDF8343001930C9B4B
:108E54000093039B02220598FFF73FFF0990099BAB
:108E64000893089B002B01D0089B14E09DF8121076
:108E7400BDF8343001930C9B0093039B102205989A
:108E8400FFF72BFF0990099B0793079B002B01D049
:108E9400079B00E0002318460BB05DF804FB82B08A
:108EA4000190019B1B88052B0AD9019B1B88B3F5F4
:108EB400486F07D9019B1B884FF6FF72934201D07C
:108EC400072325E0019B5B88052B0AD9019B5B885E
:108ED400B3F5486F07D9019B5B884FF6FF72934245
:108EE40001D0072314E0019B1B884FF6FF729342C5
:108EF4000DD0019B5B884FF6FF72934207D0019B14
:108F04001A88019B5B889A4201D9072300E0002359
:108F1400184602B0704700B587B0039002910192E1
:108F2400ADF80230019B1B889A1DBDF802309A42AD
:108F340001D90C234BE00398FFF7B1FF0590059B83
:108F44000493049B002B01D0049B40E0019B1B88ED
:108F54001A46029B134405221A70019B1B88013395
:108F64009AB2019B1A80019B1B881A46029B1344E8
:108F740012221A70019B1B8801339AB2019B1A803A
:108F8400039B1A88019B1B881946029B0B441946B4
:108F94001046FFF7AFFC03461A46019B1B88134497
:108FA4009AB2019B1A80039B5A88019B1B8819461D
:108FB400029B0B4419461046FFF79CFC03461A46D5
:108FC400019B1B8813449AB2019B1A800023184604
:108FD40007B05DF804FB00B587B0039002910192DD
:108FE400ADF80230039B9B8802330593019B1B88D9
:108FF4001A46059B13449A1CBDF802309A4201D9C3
:109004000C2353E0059BFE2B01D90C234EE0059B5A
:10901400DAB2019B1B881946029B0B440132D2B27F
:109024001A70019B1B8801339AB2019B1A80019B21
:109034001B881A46029B1344FF221A70019B1B884B
:1090440001339AB2019B1A80039B1A88019B1B88E7
:109054001946029B0B4419461046FFF74BFC034686
:109064001A46019B1B8813449AB2019B1A80039BE6
:109074009B88002B19D0039B9B68002B01D10723ED
:1090840014E0019B1B881A46029B9818039B99685D
:10909400039B9B881A4613F067FA019B1A88039B6B
:1090A4009B8813449AB2019B1A800023184607B088
:1090B4005DF804FB00B589B0039002910192ADF80C
:1090C4000230039B9B6A002B01D1072371E000232C
:1090D4008DF81F3065E0039B996A9DF81F201346A5
:1090E4005B0013449B000B440693069B9B8802334E
:1090F4000593059BFE2B01D90C235AE0059BDAB29C
:10910400019B1B881946029B0B440132D2B21A7090
:10911400019B1B8801339AB2019B1A80019B1B8817
:109124001A46029B134416221A70019B1B880133B2
:109134009AB2019B1A80069B1A88019B1B881946C8
:10914400029B0B4419461046FFF7D4FB03461A460C
:10915400019B1B8813449AB2019B1A80069B9B882F
:10916400002B19D0069B9B68002B01D1072320E01C
:10917400019B1B881A46029B9818069B9968069BBC
:109184009B881A4613F0F0F9019B1A88069B9B886A
:1091940013449AB2019B1A809DF81F3001338DF855
:1091A4001F30039B93F82C309DF81F209A4292D3D2
:1091B4000023184609B05DF804FB00B595B005908E
:1091C4000491039200231393039B1B88ADF84A3048
:1091D400039B00221A80059B93F82D30002B0ED0A0
:1091E400BDF84A301A4603990498FFF799FB139087
:1091F400139B1193119B002B01D0119BD8E0059B6D
:109204009B78002B0ED0BDF84A301A460399049877
:10921400FFF796FC1390139B1093109B002B01D027
:10922400109BC5E0059BDB78002B10D0059BDB78F9
:1092340058B2BDF84A30039A0499FFF7D0FC139052
:10924400139B0F930F9B002B01D00F9BB0E0059B4A
:109254005B68002B11D0059B5B6893F90000BDF897
:109264004A30039A0499FFF7F9FC1390139B0E9369
:109274000E9B002B01D00E9B9AE0059B1B89002BB3
:1092840014D0059B03F10800BDF84A300193039BF9
:109294000093049B06220221FFF7CAFD1390139B3F
:1092A4000D930D9B002B01D00D9B81E0059B1B8A28
:1092B400002B14D0059B03F11000BDF84A30019334
:1092C400039B0093049B07220321FFF7B1FD139036
:1092D400139B0C930C9B002B01D00C9B68E0059B0B
:1092E4001B8B002B14D0059B03F11800BDF84A30EA
:1092F4000193039B0093049B15221421FFF798FD0F
:109304001390139B0B930B9B002B01D00B9B4FE0F3
:10931400059B1B6A002B0FD0059B186ABDF84A30C9
:10932400039A0499FFF7F7FD1390139B0A930A9B82
:10933400002B01D00A9B3BE0059B5B6A002B0FD0FE
:10934400059B586ABDF84A30039A0499FFF743FE17
:109354001390139B0993099B002B01D0099B27E0D1
:10936400059B93F82C30002B0ED0BDF84A30039A9D
:1093740004990598FFF79EFE1390139B0893089B8E
:10938400002B01D0089B13E0059B1B78002B0ED00B
:10939400BDF84A30039A04990598FFF72AFB139005
:1093A400139B0793079B002B01D0079B00E0139BA3
:1093B400184615B05DF804FB86B0039001921A4676
:1093C4000B46ADF80A3013468DF80930039B002B89
:1093D40002D0019B002B01D100234CE00023ADF807
:1093E40016300CE0BDF81630039A13441B781A4665
:1093F400BDF8163013449BB20133ADF81630019B0F
:109404001B88BDF816209A4209D3BDF816300133E3
:10941400039A13441B789DF809209A4205D0BDF89D
:109424001620BDF80A309A42DCD3BDF81620BDF8E8
:109434000A309A4201D300231DE0BDF816300233EE
:10944400ADF81430BDF81630039A13441B78013B71
:10945400ADF81230BDF81420BDF812301A44BDF82E
:109464000A309A4201DD002305E0019BBDF8142077
:109474001A80BDF81230184606B0704700B585B0A2
:1094840001900B46ADF8023013468DF801300023ED
:10949400ADF80C309DF8013003AABDF80210019814
:1094A400FFF78AFF0346ADF80E30BDF80E30002BEF
:1094B40001D1002304E0BDF80C301A46019B13448B
:1094C400184605B05DF804FB72DF704700BF18460C
:1094D40073DF704700BF184682B00190019B93F878
:1094E4003034184602B0704784B0019000230393CF
:1094F4000AE0019A039B13441B78002B01D001233B
:1095040006E0039B01330393039B052BF1D900234E
:10951400184604B07047000082B003468DF8073047
:109524009DF807305A1C074B83FB02135910D317BD
:10953400C91A0B469B000B44D11ACBB2184602B091
:10954400704700BF6766666682B001900091009B19
:10955400DB7B012B04D1009B9A88019BA3F8242474
:1095640000BF02B0704700B585B001900091019B27
:10957400002283F82E24009B9A88019BB3F824349C
:109584009A4216D1019B1B7983F00103DBB2002BB5
:109594000FD00121019800F0B1FA0390039B002B36
:1095A40007D0019B9B6B002B03D0019B9B6B039803
:1095B400984700BF05B05DF804FB00B585B0019085
:1095C4000091009B1B88262B1ED1009B1B7A012B2C
:1095D40003D0009B1B7A022B17D1019B9B78184662
:1095E400FFF79AFF03461946019800F087FA0390A3
:1095F400039B002B09D0019B9B6B002B05D0019B87
:109604009B6B0398984700E000BF05B05DF804FB2E
:1096140000B585B001900B468DF80330019B03F231
:1096240027431846FFF760FF03468DF80F309DF877
:109634000330013B032B33D801A252F823F000BFBF
:1096440055960200799602008D96020099960200C2
:10965400019B9B79002B0DD0019B93F8243083F060
:109664000103DBB2002B05D09DF80F30002B01D095
:10967400012316E0019BDB79002B05D09DF80F3008
:10968400002B01D002230CE0019B1B7A002B01D09C
:10969400032306E0019B5B7A002B01D0042300E046
:1096A4000023184605B05DF804FB00BF82B00190AA
:1096B4000091019B012283F83120019B0022C3F811
:1096C4002024019B03F22642009B5A60009B002247
:1096D4009A60009B02221A70009B80229A810023C8
:1096E400184602B0704782B001900091019B02229B
:1096F40083F83120019B93F82430002B03D0009B86
:1097040007221A7002E0009B03221A70019B1B6956
:109714009AB2009B9A81019B0022C3F82024019BEA
:1097240003F22642009B5A60019BDA68009B9A6010
:109734000023184602B0704700B583B00190019B26
:109744005B79002B0FD0019B93F82E3483F0010337
:10975400DBB2002B07D00198FFF7BEFE0346002BB7
:1097640001D0012300E0002303F00103DBB218461B
:1097740003B05DF804FB00B585B001900B468DF88D
:109784000330019BD3F81004019BB3F81434012275
:109794001946FFF773FE0390039B002B03D0039B32
:1097A4009DF803201A70019B03F15400019B03F5FB
:1097B4008261019B3C331A46FFF786FE0346184636
:1097C40005B05DF804FB00B585B001900091019BE4
:1097D4005A69009B9A60019B9B699AB2009B9A818B
:1097E400019B93F82430002B04D0019B062283F8BC
:1097F4003C2003E0019B012283F83C200198FFF701
:109804009BFF0346002B13D0009B02221A750421F0
:109814000198FFF7B0FF0390039B0293029B002B78
:1098240001D0029B0FE0019B052283F8312003E065
:10983400019B032283F83120019B03F58262019B83
:10984400C3F820240023184605B05DF804FB00B5D6
:1098540085B001900091019BDA69009B9A60019B9D
:109864001B6A9AB2009B9A81019B93F82430002BC7
:1098740004D0019B062283F83C2003E0019B0122D3
:1098840083F83C200198FFF757FF0346002B13D0C1
:10989400009B02221A7504210198FFF76CFF0390C4
:1098A400039B0293029B002B01D0029B0FE0019BC0
:1098B400062283F8312003E0019B042283F831203F
:1098C400019B03F58262019BC3F820240023184600
:1098D40005B05DF804FB82B00190019B9B78002BDE
:1098E40006D0019B93F82030002B01D000230AE01E
:1098F400019B9B6A042B03D0019B5B6A042B01D15F
:10990400002300E00123184602B0704784B00190A0
:10991400019B93F82430002B03D0EE23ADF80E30D6
:1099240002E01F23ADF80E30BDF80E30184604B027
:10993400704782B001900B468DF80330019B9DF86F
:10994400032083F8302000BF02B0704730B587B0E1
:1099540001900091009B002B02D0019B002B01D1B0
:109964000E23B8E0009B78331846FFF7B4FF034694
:1099740083F00103DBB2002B01D00723ABE0019B92
:1099840000229A70019A009B141D03F178050FCDF3
:109994000FC40FCD0FC495E8070084E80700019BAE
:1099A400002283F83020009BD3F8A420019B5A6343
:1099B400009BD3F8A820019B9A63019B4FF6FF728A
:1099C400A3F82424019B03F58262019BC3F820249D
:1099D400019B03F2264307220021184612F0F6FDEC
:1099E400019B1B7883F00103DBB2002B03D0019BA6
:1099F400FF2283F85420019B03F15502019BC3F815
:109A040010240198FFF782FF03461A46019BA3F82E
:109A140014240098019B03F15501019B03F21443A4
:109A24001A46FFF7CAFB0590059B0493049B002B81
:109A340001D0049B4FE0019B03F23122019BC3F848
:109A440018240198FFF762FF03461A46019BA3F806
:109A54001C24009B03F13C00019BD3F81814019BC8
:109A640003F21C431A46FFF7A8FB0590059B0393DA
:109A7400039B002B01D0039B2DE0019B012283F863
:109A84005120019B9B699AB2019BA3F84820019B3A
:109A9400012283F83C20019B00221A64019B0022CE
:109AA40083F85020019B5A69019B5A64019B03F17E
:109AB4005400019B3C331A460021FFF705FD059035
:109AC400059B0293029B002B01D0029B03E0019BA8
:109AD40001221A70059B184607B030BD82B0019070
:109AE400019B1B68012B03D0019B1B68022B01D136
:109AF400012300E00023184602B0704700B585B08A
:109B040001900B468DF80330019B1B7883F0010311
:109B1400DBB2002B01D0082309E1019B9DF803204F
:109B24009A70019B03F2264307220021184612F083
:109B34004DFD019B9B79002B03D0019B9B78012B4E
:109B44000FD0019BDB79002B03D0019B9B78012B69
:109B540007D0019BDB79002B14D0019B9B78022B4F
:109B640010D1019B5B6B002B08D0019B012283F871
:109B74002D24019B5B6B0820984703E0019B002286
:109B840083F82D249DF8033019460198FFF740FD12
:109B940003461A46019B9A70019B5B6B002B20D0F5
:109BA400019B9B78032B03D0019B9B78042B18D13A
:109BB400019B5B79002B14D0019B93F82E3483F026
:109BC4000103DBB2002B0CD0019B002283F830246C
:109BD400019B012283F82F24019B5B6B072098478C
:109BE40003E0019B002283F82F24019B3C331822BD
:109BF4000021184612F0EAFC019B012283F83C2064
:109C0400019B2C331846FFF769FF0346002B06D04F
:109C1400019BDB6ADAB2019B83F8512003E0019BCC
:109C2400012283F85120019B93F82430002B12D099
:109C3400019B28331846FFF751FF0346002B06D03B
:109C4400019B9B6ADAB2019B83F8522003E0019BDB
:109C5400012283F85220019B002283F85020019BAB
:109C64009B78042B31D801A252F823F0C59C020042
:109C7400859C0200959C0200A59C0200B59C0200F4
:109C8400019B3C3319460198FFF710FD03901DE03A
:109C9400019B3C3319460198FFF725FD039015E01D
:109CA400019B3C3319460198FFF78DFD03900DE0AD
:109CB400019B3C3319460198FFF7C9FD039005E069
:109CC400019B002283F8312000E000BF019B9B78B8
:109CD400002B20D0019B03F15400019BD3F82014E6
:109CE400019B3C331A46FFF7EFFB0390039B002BC9
:109CF40001D0039B1BE0019B93F85420019B93F834
:109D0400303019461046FFF7E3FB0390039B002B0A
:109D140001D0039B0BE0019B5B6B002B06D0019BE6
:109D24005B6B019A92F8312010469847002318463D
:109D340005B05DF804FB00BF00B585B0019000914B
:109D4400009B0393019B1B88262B10D0262B13DC2E
:109D5400102B02D0112B05D00EE001990398FFF7C8
:109D6400F3FB0AE001990398FFF7FDFB05E0019975
:109D74000398FFF722FC00E000BF00BF05B05DF8C8
:109D840004FB75DF704700BF184676DF704700BFDD
:109D940018467ADF704700BF18467BDF704700BF64
:109DA4001846000084B00346ADF806300023039340
:109DB40016E00F49039A13469B0013449B000B447F
:109DC4001B88BDF806209A4207D1039A13469B00CC
:109DD40013449B00064A134406E0039B0133039398
:109DE400039B002BE5D00023184604B0704700BF46
:109DF4006028002082B001900B46ADF80230019B30
:109E0400BDF802201A80019B00221A72019B0549A9
:109E140003F10A020B4603CB1060516000BF02B08D
:109E2400704700BF9028002082B00190019B4FF63C
:109E3400FF721A8000BF02B0704788B0039002918D
:109E440011461A460B46ADF806301346ADF80430F9
:109E5400039B9B881A46BDF8063013440793039B63
:109E64009B881946039B9B88BDF80620934228BF14
:109E740013469BB2CB1A0693039BDB881A46BDF8A4
:109E8400043013440593039BDB881946039BDB884A
:109E9400BDF80420934228BF13469BB2CB1A049307
:109EA400029B5A88039B1B889A4205D3029B5A88BB
:109EB400039B5B889A4201D900231CE0029B9B8888
:109EC4001A46069B934205D8029B9B881A46079B19
:109ED400934201D200230EE0029BDB881A46049BC6
:109EE400934205D8029BDB881A46059B934201D214
:109EF400002300E00123184608B0704700B583B082
:109F04000190064B9B69002B03D0044B9B6901987D
:109F1400984700BF03B05DF804FB00BF742800201D
:109F240000B585B003460091ADF80630BDF80630A3
:109F340000991846FFF725FF0390039B002B05D0DB
:109F4400039B112B02D00398FFF7D8FF039B002B30
:109F54000CBF01230023DBB2184605B05DF804FBF7
:109F640000B589B00190019B0793079B9BB21846EB
:109F7400FFF718FF0690069B002B42D0069B1A7A27
:109F8400224B1B7B9A4215D2079B9AB2069B0A333B
:109F940019461046FFF7C4FF03468DF813309DF8A9
:109FA4001330002B2DD0069B1B7A0133DAB2069BAB
:109FB4001A7226E0069B00221A72144B1B7C002B9B
:109FC4000FD0079B9BB23B211846FFF7DEFE05909E
:109FD400059B002B05D0059B082B02D00598FFF7A5
:109FE4008DFF0A4B5B69002B0BD000238DF80C30DE
:109FF400079B9BB2ADF80E30044B5B6903AA104675
:10A00400984700BF09B05DF804FB00BF7428002026
:10A0140030B587B00190019B002B01D10E2353E092
:10A024002B4A019B14461D460FCD0FC495E807002B
:10A0340084E80700264B274A1A60019B1B68002B03
:10A0440011D0019B1B681846FFF7A3FE0490049BE4
:10A05400002B01D0049B37E0019B1A681D4B10684C
:10A06400516803C308E01B48FFF797FE0490049B64
:10A07400002B01D0049B27E00023059320E0059AE0
:10A0840013469B0013449B00134A13440393039801
:10A09400FFF7CAFE059B5B01104A1A44039B5A60F2
:10A0A400039B04330E4A002118460BF0FDF804907C
:10A0B400049B002B01D0032306E0059B0133059389
:10A0C400059B002BDBD00023184607B030BD00BF32
:10A0D40074280020902800206028002040280020B8
:10A0E400659F020000B587B003460091ADF80630C5
:10A0F400009B5B7A002B1AD1009B1B7A002B03D1A7
:10A10400164B5B68059302E0144B9B680593009B18
:10A114005B68BDF80620059918460BF0F9F8049021
:10A12400049B002B16D00498FFF7E8FE12E0009B76
:10A1340000221A72094B5B69002B0BD001238DF8A6
:10A144000C30BDF80630ADF80E30044B5B6903AA41
:10A154001046984700BF07B05DF804FB7428002040
:10A1640000B585B00190019BDB7B8DF80F30019B1E
:10A174009B88ADF80C309DF80F30012B2CD14FF695
:10A18400FF70FFF70FFE0290029B002B03D1042007
:10A19400FFF7B4FE21E0BDF80C3019460298FFF732
:10A1A40029FE029B03F10A00019B03F110014FF603
:10A1B400FF7340F2F312FFF740FE03461A46029B78
:10A1C4005A72074BDB89002B07D1BDF80C3002997A
:10A1D4001846FFF787FF00E000BF05B05DF804FBF9
:10A1E4007428002000B587B00190019B9B88ADF8CE
:10A1F4001630BDF816301846FFF7D4FD0490049BC2
:10A20400002B0ED0049B5B6818460BF0B9F8039042
:10A21400039B002B02D00398FFF770FE0498FFF70E
:10A2240003FE00BF07B05DF804FB000000B587B073
:10A234000190019B06330593059B1A88194BDB8912
:10A244009A422BD1059B5B89022B27D1019B9B88CA
:10A25400ADF81230BDF812301846FFF7A3FD039095
:10A26400039B002B1AD0059B0C33184600F09BFB74
:10A274000346002B06D0BDF8123003991846FFF7A9
:10A2840031FF0BE0039B5B6818460BF079F80290F2
:10A29400029B002B02D00298FFF730FE00BF07B0EC
:10A2A4005DF804FB7428002000B585B00190019B83
:10A2B4009B88ADF80E30BDF80E301846FFF772FDDE
:10A2C4000290029B002B15D0029B03F10A00019B14
:10A2D40003F108014FF6FF7340F2F312FFF7ADFDEF
:10A2E40003461A46029B5A72BDF80E30029918466C
:10A2F400FFF7F8FE00BF05B05DF804FB00B583B0BE
:10A3040001900091019B1B88502B12D0502B18DC1C
:10A31400122B12D0122B14DC102B02D0112B04D0D0
:10A324000FE00198FFF71CFF0CE00198FFF75AFFBC
:10A3340008E00198FFF77AFF04E00198FFF7B4FF03
:10A3440000E000BF00BF03B05DF804FB30B58FB080
:10A354000190009100230293009B002B1AD000234C
:10A364000D9314E06B460D9918460DF0D0FD03468D
:10A37400002B09D0029B5A1C02920D9A92B25B00E8
:10A3840038336B4423F82C2C0D9B01330D930D9B18
:10A39400132BE7D9019B1D4602AC0FCC0FC50FCC84
:10A3A4000FC594E8070085E8070001980FB030BD99
:10A3B40000B583B00346ADF80630BDF80630132B64
:10A3C40001D900230CE0BDF80630194606480DF00B
:10A3D40049FDBDF80630194604480DF043FD01233C
:10A3E400184603B05DF804FBA02800209C28002038
:10A3F40000B585B00346ADF80630002303930DE0A5
:10A40400039B9B00094A13440433BDF806201146FC
:10A4140018460DF063FD039B01330393039B1D2B2F
:10A42400EED900BF00BF05B05DF804FB98280020FA
:10A4340000B583B00346ADF80630BDF806301946C2
:10A4440003480DF04BFD00BF03B05DF804FB00BFF3
:10A45400A028002030B59BB0184B9B68DB431893B1
:10A46400164B5A6818AB114618460DF016FE189A8A
:10A474006B4611461846FFF769FF0DAC6D460FCDCC
:10A484000FC40FCD0FC495E8070084E8070000232C
:10A4940019930BE0199B5B0068336B4433F8303C31
:10A4A4001846FFF7A5FF199B013319930D9B199AC1
:10A4B4009A42EFD300BF00BF1BB030BD98280020E4
:10A4C40000B583B003468DF807309DF80730194670
:10A4D40003480DF01CFD0346184603B05DF804FB69
:10A4E4009828002000B583B001900B46ADF80230E7
:10A4F40013468DF801309DF80130002B06D0BDF8CD
:10A504000230194601980DF0ADFC05E0BDF80230AB
:10A51400194601980DF0E2FC00BF03B05DF804FB9E
:10A5240000B585B001900091019B9B88ADF80E3079
:10A53400019B1B88103B0A2B00F2888001A252F871
:10A5440023F000BF75A50200B1A5020051A60200C8
:10A5540051A6020051A6020051A6020051A6020013
:10A5640051A6020051A602001BA60200BDA50200CE
:10A57400FFF770FFBDF80E301846FFF719FF0346CA
:10A5840083F00103DBB2002B05D0324AF021042012
:10A594000AF0DEFA57E0019BDB7B012B53D0BDF8B8
:10A5A4000E3019462C480DF05DFC4CE0BDF80E3021
:10A5B4001846FFF73DFF49E0019B1B7AC3F30313E1
:10A5C400DBB28DF80D309DF80D30032B8CBF0123C9
:10A5D4000023DAB2BDF80E3019462048FFF782FF97
:10A5E4009DF80D30022B8CBF01230023DAB2BDF895
:10A5F4000E3019461A48FFF775FF9DF80D30012BF0
:10A604008CBF01230023DAB2BDF80E301946154879
:10A61400FFF768FF1AE0019B1B7A002B15D1019B01
:10A624005B7AC3F3C003DBB2002B14BF0123002306
:10A634008DF80C309DF80C20BDF80E3019460748F3
:10A64400FFF750FF01E000BF00E000BF00BF05B00E
:10A654005DF804FBE0CA0300A4280020B028002011
:10A66400AC280020A828002000B583B00346ADF82C
:10A674000630BDF80630132B01D9002306E0BDF8DF
:10A684000630194603480DF042FC0346184603B051
:10A694005DF804FB9C28002000B585B00346ADF8A6
:10A6A400063000238DF80F30BDF806301846FFF74A
:10A6B400DBFF0346002B11D0BDF8063019460A48CB
:10A6C4000DF025FC03468DF80E309DF80E30002B5E
:10A6D40001D0022300E001238DF80F309DF80F30E4
:10A6E400184605B05DF804FBA428002000B585B029
:10A6F4000346ADF8063000238DF80F30BDF8063060
:10A704001846FFF7B1FF0346002B11D0BDF8063001
:10A7140019460A480DF0FBFB03468DF80E309DF8F0
:10A724000E30002B01D0022300E001238DF80F30FE
:10A734009DF80F30184605B05DF804FBA0280020F2
:10A7440000B583B00346ADF80630BDF806301846B0
:10A75400FFF78AFF0346002B07D0BDF806301946E1
:10A7640004480DF0D4FB034600E00023184603B070
:10A774005DF804FBA828002000B583B00346ADF8BB
:10A784000630BDF806301846FFF76EFF0346002B6F
:10A7940007D0BDF80630194604480DF0B8FB03464F
:10A7A40000E00023184603B05DF804FBAC28002049
:10A7B40000B583B00346ADF80630BDF80630184640
:10A7C400FFF752FF0346002B07D0BDF806301946A9
:10A7D40004480DF09CFB034600E00023184603B038
:10A7E4005DF804FBB028002000B583B018210748A9
:10A7F4000DF0A5FB0190019B182B01D1182301E05A
:10A80400019BDBB2184603B05DF804FB98280020D6
:10A8140000B583B003460A46ADF8063013468DF8FA
:10A8240005309DF805301846FFF74AFE0346002B15
:10A8340016D0BDF806301846FFF716FF0346002B66
:10A844000ED09DF8053006339B00084A13440433A8
:10A85400BDF80620114618460DF059FB034600E0EA
:10A864000023184603B05DF804FB00BF98280020BD
:10A8740000B583B00346ADF806300B468DF80530BD
:10A8840013468DF804309DF805301846FFF718FE7E
:10A894000346002B15D0BDF806301846FFF7E4FE3A
:10A8A4000346002B0DD09DF8053006339B00074A64
:10A8B400134404339DF80420BDF806101846FFF72E
:10A8C40011FE00BF03B05DF804FB00BF9828002010
:10A8D40000B587B0039002910192029B002B01D135
:10A8E40000231FE000230593039B002B19D00023B2
:10A8F400049313E003AB049918460DF008FB0346D8
:10A90400002B08D0049B9AB2029B019910469847E9
:10A91400059B01330593049B01330493049B132B80
:10A92400E8D9059B184607B05DF804FB00B585B06F
:10A934000346029101928DF80F309DF80F301846AE
:10A94400FFF7BEFD034683F00103DBB2002B01D009
:10A9540000230CE09DF80F30074A06339B00134494
:10A964005B68019A02991846FFF7B2FF034618463E
:10A9740005B05DF804FB00BF9828002082B0019068
:10A98400019B1B781AB2019B01331B781BB21B027B
:10A994001BB213431BB29BB2184602B07047AADF26
:10A9A400704700BF184600B585B001900198FFF7C5
:10A9B400E5FF0346ADF80E30BDF80E3003F0010399
:10A9C400002B14BF01230023DBB2184605B05DF849
:10A9D40004FB000082B0034600918DF80730009A12
:10A9E400137823F00F031370009A137823F0F00305
:10A9F40013709DF80730052B5BD801A252F823F0A1
:10AA04001DAA020033AA02004DAA020067AA02008E
:10AA140081AA02009BAA0200009A137823F00F0374
:10AA24001370009A137823F0F003137040E0009A37
:10AA34001378012161F303031370009A1378012141
:10AA440061F30713137033E0009A1378012161F363
:10AA540003031370009A1378022161F30713137030
:10AA640026E0009A1378012161F303031370009A1E
:10AA74001378032161F30713137019E0009A137814
:10AA8400022161F303031370009A1378012161F327
:10AA9400071313700CE0009A1378022161F3030387
:10AAA4001370009A1378022161F30713137000BF27
:10AAB40000BF00BF02B0704700B595B003460291D5
:10AAC4000192ADF80E30029B9B78002B03D1012339
:10AAD4008DF81E3003E0029B9B788DF81E30029B9C
:10AAE4001B88ADF81C3006AB03220021184611F078
:10AAF4006DFD029B5B7C06AA11461846FFF76AFFB0
:10AB0400029B9A7C06AB013319461046FFF762FF9D
:10AB1400029BDA7B9DF81A3062F3C3038DF81A3076
:10AB2400029B1A7C9DF81A3062F304138DF81A30D4
:10AB3400029B1A7B9DF81A3062F300038DF81A30D9
:10AB4400029B1B7D002B01D0022200E001229DF814
:10AB54001A3062F342038DF81A300DAB1C22002127
:10AB6400184611F033FD029B5B7B03F01003DBB24C
:10AB7400002B06D1029B5B7B03F02003DBB2002B8E
:10AB840024D004AB03220021184611F01FFD029BC0
:10AB9400DA7C04AB013319461046FFF71BFF9DF81E
:10ABA4001030012262F303038DF810309DF8103049
:10ABB400012262F307138DF810309DF81230012240
:10ABC40062F342038DF8123004AB1293029B5B7B59
:10ABD4008DF83430029B9B7B8DF8353008AB142202
:10ABE4000021184611F0F2FC07AB089306AB099359
:10ABF400029B9B88ADF82C30029B9B68002B06D0EF
:10AC0400029BDB88ADF82830029B9B680C93029B67
:10AC14009B69002B4FD005AB03220021184611F08D
:10AC2400D5FC029B9B691B88ADF83C30029B9B6959
:10AC34005B88ADF83E30029B9B695B680E9305AB65
:10AC44001193029B9B691B7B05AA11461846FFF7CB
:10AC5400C1FE029B9B695A7B05AB01331946104622
:10AC6400FFF7B8FE029B9B699A7A9DF8163062F34F
:10AC7400C3038DF81630029B9B69DA7A9DF816306F
:10AC840062F304138DF81630029B9B691A7A9DF8BF
:10AC9400163062F300038DF81630029B9B699B7B90
:10ACA400002B01D0022200E001229DF8163062F34D
:10ACB40042038DF81630029BDB69002B02D0029B05
:10ACC400DB69109308AA0DA9BDF80E00019BFFF7DC
:10ACD40066FE0346184615B05DF804FBA0DF704716
:10ACE40000BF1846A1DF704700BF1846ADDF7047AC
:10ACF40000BF1846B3DF704700BF1846B4DF704783
:10AD040000BF184600B583B00190019B002B03D10E
:10AD140006497220FBF720FE019B00221A60BFF354
:10AD24005F8F00BF00BF03B05DF804FB6CCB030072
:10AD340000B585B00190019B002B03D10A49852001
:10AD4400FBF70AFE012101980DF048F90390BFF3C7
:10AD54005F8F00BF039B002B0CBF01230023DBB2DA
:10AD6400184605B05DF804FB6CCB030000B583B056
:10AD74000190019B002B03D10A499220FBF7ECFDC3
:10AD8400019B1B68012B03D006499320FBF7E4FDCC
:10AD9400BFF35F8F00BF019B00221A6000BF03B0A6
:10ADA4005DF804FB6CCB0300024B00221A7000BF59
:10ADB400704700BF1429002000B585B00190019BA5
:10ADC4005B88184601F088FA03461A46019B9A806C
:10ADD4000023039308E0084A039B52F823300198A8
:10ADE4009847039B01330393039B002BF3D000BFCD
:10ADF40000BF05B05DF804FB8022002082B0019002
:10AE0400019B9B79012B0BD1019B1B79012B07D152
:10AE1400019B5B8842F60212934201D1012300E0B8
:10AE2400002303F00103DBB2184602B0704700B5FB
:10AE340089B003460091ADF8063003AB00221A60D6
:10AE44005A609A60DA601A6107238DF80C30BDF8F5
:10AE54000630ADF80E30009B059303AB1846FFF7A0
:10AE6400ABFF00BF09B05DF804FB000010B58AB069
:10AE74000346ADF8063000238DF8273003AB0022DB
:10AE84001A605A609A60DA601A61BDF80630ADF84B
:10AE94000E30BDF806304FF6FF72934261D0BDF814
:10AEA4000630184600F062FF0890089B43F2020245
:10AEB40093424BD0089B43F2020293422DD8089B45
:10AEC400112B11D0089B112B27D8089B002B03D0E2
:10AED400089B0B2B0CD020E00E238DF80C3003AB19
:10AEE4001846FFF769FF32E001238DF827302EE082
:10AEF4000F238DF80C301C4A1C4BD31ADB081B049F
:10AF040043F00203BDF80620194918460FF0A2FBCE
:10AF140003AB1846FFF750FF19E0134A134BD31A3B
:10AF2400DB081B0443F0010408980EF045FE0346B9
:10AF34001A46BDF806300F4920460FF09CFBBDF8B9
:10AF4400063008991846FFF772FF00E000BF0A4B6D
:10AF540019789DF82720BDF806301846FFF788FCBD
:10AF640000E000BF0AB010BD54C70300C4C603000C
:10AF7400B8CB030038CC03001D29002000B583B0F2
:10AF840003460A46ADF8063013468DF80530064BE5
:10AF940019789DF80520BDF806301846FFF768FCBF
:10AFA40000BF03B05DF804FB1C29002010B58AB073
:10AFB4000346ADF8063000238DF8273000238DF8C2
:10AFC4002630BDF80630184600F046FE0890089B6F
:10AFD40043F20202934252D0089B43F2020293428C
:10AFE40034D8089B862B11D0089B862B2ED8089B1F
:10AFF400002B03D0089B112B04D027E001238DF8EC
:10B0040026303DE001238DF8273039E003AB0022E0
:10B014001A605A609A60DA601A6106238DF80C305F
:10B02400BDF80630ADF80E301C4A1D4BD31ADB08B0
:10B034001B0443F00203BDF806201A4918460FF01A
:10B0440009FB03AB1846FFF7B7FE19E0134A144B8C
:10B05400D31ADB081B0443F0010408980EF0ACFD7E
:10B0640003461A46BDF806300F4920460FF003FB8D
:10B07400BDF8063008991846FFF7D9FE00E000BF76
:10B084009DF82720BDF8063011461846FFF776FFD5
:10B094009DF8263018460AB010BD00BF54C70300FF
:10B0A400C4C603008CCC0300C4CC030000B589B033
:10B0B40003460091ADF8063000238DF81F300DF1E2
:10B0C40016031846FFF716FE0690069B002B04D0C5
:10B0D4002A494FF49870FBF73FFC0123ADF81C306C
:10B0E40040E00223ADF808300023ADF80A3004AB89
:10B0F400039304A9BDF81C3000221846FFF7FEFD97
:10B104000690069B002B01D0069B32E09DF81F3071
:10B1140083F00103DBB2002B09D0BDF8103042F6F6
:10B124000522934203D101238DF81F3015E09DF8C9
:10B134001F30002B11D0BDF8103042F6021293429A
:10B144000BD1009B039302AABDF81C10BDF8063076
:10B154001846FFF7CBFD03460BE0BDF81C30013366
:10B16400ADF81C30BDF81630BDF81C209A42B8D397
:10B174000523184609B05DF804FB00BF04CD0300A5
:10B1840010B58AB00346ADF8063001238DF8273098
:10B1940000238DF82630BDF80630184600F096FEE0
:10B1A4000890089B43F2014293426AD0089B43F201
:10B1B400014293426BD8089B112B29D8089B112B71
:10B1C40065D801A252F823F021B2020093B2020022
:10B1D40093B2020093B2020093B2020093B202004F
:10B1E4006DB2020093B202004DB2020093B20200AB
:10B1F40093B2020093B2020093B2020093B202002F
:10B2040093B2020093B2020093B20200C5B20200EC
:10B21400089B43F20202934254D038E003AB00226D
:10B224001A605A609A60DA601A6110238DF80C3043
:10B23400BDF80630ADF80E3001238DF8263003AB8F
:10B244001846FFF7B9FD3EE00DF10A02BDF80630DD
:10B2540011461846FFF72AFF0890089B002B03D1DC
:10B26400BDF80A30002B2ED100238DF82730BDF80D
:10B274000630184601F030F80346184600F06EFE1A
:10B2840021E0BDF806301846FFF7F0FD1BE0184A30
:10B29400184BD31ADB081B0443F0010408980EF082
:10B2A4008BFC03461A46BDF80630134920460FF0BE
:10B2B400E2F9BDF8063008991846FFF7B8FD02E038
:10B2C40000BF00E000BF0D4B19789DF82720BDF8A2
:10B2D40006301846FFF7CCFA094B19789DF826205A
:10B2E400BDF806301846FFF7C3FA00BF0AB010BD18
:10B2F40054C70300C4C6030098CD03001E290020D0
:10B304001F29002000B583B003460091ADF8063034
:10B31400BDF806301846FFF7A9FD00BF03B05DF87D
:10B3240004FB000008B5044B1B78002203491846AF
:10B33400FFF7FCFA00BF08BD1D29002009B3020075
:10B3440000B583B003460091ADF806300A48FFF714
:10B35400EFFC0346002B0CD0BDF806301846FFF76F
:10B3640025FE0346002B03D10348FFF7FFFC00E052
:10B3740000BF03B05DF804FB1829002000B583B0BA
:10B3840003460091ADF806300B4B1A78BDF8063031
:10B3940011461846FFF73CFA034683F00103DBB27B
:10B3A400002B04D0BDF806301846FFF7E9FE00BFB5
:10B3B40003B05DF804FB00BF1F29002008B5044B4F
:10B3C4001B78002203491846FFF7B0FA00BF08BDF6
:10B3D4001E29002081B3020000B583B00346ADF8F6
:10B3E4000630BDF80630184600F04CFD0346002B2D
:10B3F40007D0064B1978BDF8063001221846FFF72E
:10B4040037FA00BF03B05DF804FB00BF1E2900201B
:10B4140000B587B003460091ADF8063004AB0422B2
:10B424000021184611F0D2F842F6A623ADF81030E8
:10B4340001238DF812300D4B1B68039303AA04A952
:10B44400BDF806301846FFF749FC0590059B002B14
:10B4540007D1074B1978BDF8063001221846FFF7CB
:10B4640007FA00BF07B05DF804FB00BFD8CD0300A6
:10B474002129002000B585B00346ADF80630BDF89B
:10B484000630184600F028FF0346184602AA002397
:10B49400092101F09FFF0346052B07D1054B1978BD
:10B4A400BDF8063001221846FFF7E2F900BF05B0E7
:10B4B4005DF804FB2029002000B583B00B4B1B78FA
:10B4C40000220B491846FFF731FA0190019B002B2B
:10B4D40007D1084B1B78002207491846FFF726FAC4
:10B4E400019000BF03B05DF804FB00BF1C290020DD
:10B4F40045B302002029002015B4020000B583B032
:10B504000190019B1B78002B11D1019B5B8818468D
:10B51400FFF7ACFC019B5B881846FFF75DFF019BBE
:10B524005B881846FFF7A6FFFFF7C6FF00E000BFE1
:10B5340000BF03B05DF804FB00B589B00190019B26
:10B544001B78082B5ED1019B5B7A002B5AD1019B9F
:10B554001B7A082B47D0082B4DDC012B1BD0072B63
:10B5640049D1019B9B88184600F060FF0346ADF863
:10B574001E30BDF81E304FF6FF7293423DD0BDF829
:10B584001E3001211846FFF7F9FCBDF81E3018469D
:10B59400FFF770FF31E0019B9B8803AA0121184645
:10B5A40002F0A4FC0690069B002B28D1049B1B7878
:10B5B400002B24D0019B9B88184600F037FF0346DC
:10B5C400ADF81630BDF816304FF6FF72934216D020
:10B5D4000F4B1978BDF8163001221846FFF748F9C9
:10B5E400FFF7ECFE0BE00B4B1B68012B09D109485C
:10B5F400FFF7BCFB05E000BF04E000BF02E000BFB2
:10B6040000E000BFFFF758FF00BF09B05DF804FB7E
:10B614001E2900201829002008B5FFF7C5FBFFF7F5
:10B62400E3F803461A462C4B1A70FFF7DDF803467D
:10B634001A462A4B1A70FFF7D7F803461A46284BC6
:10B644001A70FFF7D1F803461A46264B1A70FFF713
:10B65400CBF803461A46244B1A70FFF7C5F8034685
:10B664001A46224B1A70FFF7BFF803461A46204BBE
:10B674001A70194B1B78182B17D0184B1B78182BE2
:10B6840013D0174B1B78182B0FD0164B1B78182B85
:10B694000BD0154B1B78182B07D0144B1B78182B89
:10B6A40003D0134B1B78182B0CD1124A124BD31A0C
:10B6B400DB081B0443F00103104918460EF0BCFFDD
:10B6C400032306E00E48FFF71DFB0E4B01221A7000
:10B6D4000023184608BD00BF1C2900201D29002096
:10B6E4001E2900201F2900202029002021290020B4
:10B6F4002229002054C70300C4C60300DCCD030084
:10B70400182900201429002010B586B003460A46E3
:10B71400ADF8063013468DF8053003AB00221A60ED
:10B724005A600123ADF80C3009238DF80E30194B03
:10B734001978BDF8063000221846FFF799F89DF8ED
:10B744000530002B01D0144B00E0144B0493BDF8DA
:10B754000630184600F0C0FD0346184603AB00222D
:10B76400194601F0FFFE0590059B002B0FD00C4AF3
:10B774000C4BD31ADB081B0443F0020405980EF0AB
:10B784001BFA03461A46084920460EF063FF00BF21
:10B7940006B010BD2029002060CF030064CF030051
:10B7A40054C70300C4C603004CCE030000B58DB0DB
:10B7B4000190019B9B88ADF82C30019B1B88353B85
:10B7C4001F2B00F2688101A252F823F0E1B80200B5
:10B7D400E3B902009BBA02009BBA02009BBA0200C2
:10B7E4009BBA02009BBA02009BBA02009BBA0200F9
:10B7F4009BBA02009BBA02009BBA02009BBA0200E9
:10B804009BBA02009BBA02009BBA02009BBA0200D8
:10B814009BBA02009BBA02009BBA02009BBA0200C8
:10B824009BBA02009BBA02009BBA02009BBA0200B8
:10B834009BBA02009BBA0200BDB802009BBA020088
:10B8440051B802009BBA02005DB80200BDF82C306A
:10B854001846FFF70BFB1EE103AB00221A605A6087
:10B864009A60DA601A6111238DF80C30BDF82C301F
:10B87400ADF80E30BDF82C30184600F02DFD03460F
:10B88400ADF81030BDF81030184600F067FB864B59
:10B894001978BDF82C3000221846FEF7E9FF834BD7
:10B8A4001978BDF82C3000221846FEF7E1FF03ABEF
:10B8B4001846FFF781FAEEE0019B06331846FFF7BE
:10B8C4009DFA0346002B00F0DF80BDF82C300121E7
:10B8D4001846FFF753FBFFF7EFFDD5E000238DF883
:10B8E4002F30019B9B88ADF82C30019B0A330993C0
:10B8F4006F4B1A78BDF82C3011461846FEF788FFB6
:10B90400034683F00103DBB2002B40F0BF80684B99
:10B914001978BDF82C3000221846FEF7A9FF019BC8
:10B92400DB88B3F5857F4CD0019BDB88002B0DD0E1
:10B93400604A614BD31ADB081B0443F00200019BED
:10B94400DB881A465D490EF085FE3AE0099B1B88A8
:10B95400012B0CD0574A584BD31ADB081B0443F075
:10B964000200099B1B881A4655490EF073FE099B79
:10B974005B88012B0DD04F4A4F4BD31ADB081B04B5
:10B9840043F00200099B5B881A464E490EF062FEA2
:10B9940017E0099B04331988BDF82C30002218469F
:10B9A400FFF7A0F90890089B002B0AD101238DF81A
:10B9B4002F30454B1978BDF82C3001221846FEF77C
:10B9C40057FF9DF82F3083F00103DBB2002B5FD0CB
:10B9D400BDF82C3000211846FFF796FE58E00023EE
:10B9E4008DF82E30019B9B88ADF82C30019B0A33D7
:10B9F4000A93354B1A78BDF82C3011461846FEF7D9
:10BA040007FF034683F00103DBB2002B42D12E4B28
:10BA14001978BDF82C3000221846FEF729FF019B47
:10BA2400DB88002B0DD0234A234BD31ADB081B04DD
:10BA340043F00200019BDB881A4620490EF00AFEFF
:10BA440019E00A9B9B88012B0DD01A4A1A4BD31A72
:10BA5400DB081B0443F002000A9B9B881A46194921
:10BA64000EF0F8FD07E00A9B9B79002B14BF01231D
:10BA740000238DF82E309DF82E20BDF82C30114671
:10BA84001846FFF741FE06E000BF04E000BF02E0F5
:10BA940000BF00E000BFFFF745FCFFF78FFC00BFCD
:10BAA4000DB05DF804FB00BF1F2900201E290020F3
:10BAB4002129002054C70300C4C60300ACCE0300F0
:10BAC400E8CE030024CF030022290020AFDF704713
